:020000040800F2
:10000000C0080020A5010008E12400085D220008C6
:10001000C5240008051900088B2F00080000000007
:10002000000000000000000000000000E1290008BE
:100030000919000800000000C1280008F52A00087E
:10004000BF010008BF010008BF010008BF01000890
:10005000BF010008BF0100080D190008A919000818
:10006000BF010008BF010008BF010008BF01000870
:10007000BF010008BF010008BF010008BF01000860
:10008000BF010008BF010008BF010008BF01000850
:10009000BF010008BF010008BF010008491A00089D
:1000A000BF010008A92B0008BF010008BF0100081C
:1000B000C92B0008052C0008BF010008BF0100087B
:1000C000BF010008BF010008BF010008BF01000810
:1000D000BF010008A52D0008BF010008BF010008EE
:1000E000BF010008BF010008BF01000800F002F8CE
:1000F00000F048F80AA090E8000C82448344AAF17A
:100100000107DA4501D100F03DF8AFF2090EBAE877
:100110000F0013F0010F18BFFB1A43F0010318473B
:100120009C4A0000BC4A0000103A24BF78C878C13D
:10013000FAD8520724BF30C830C144BF04680C60ED
:10014000704700000023002400250026103A28BF35
:1001500078C1FBD8520728BF30C148BF0B60704739
:100160001FB500F07FFA04000020002103F0DEF844
:10017000401C60600020002103F0C2F8E0601FBD59
:1001800010B510BD00F048FA1146FFF7E9FF03F083
:1001900001F800F0F5FC03B4FFF7F2FF03BC00F038
:1001A000D5FF00000948804709480047FEE7FEE701
:1001B000FEE7FEE7FEE7FEE7FEE7FEE7FEE7FEE717
:1001C00004480549054A064B70470000492B0008C2
:1001D000ED000008C0020020C0080020C00400207C
:1001E000C004002070B5064600F096F80468054685
:1001F00030460A22002100F0F1F82C6070BD0000AA
:10020000014A00F023B900003C00002030B505464B
:100210000B462A4613F8014B12F8010B08B1A04215
:10022000F8D01CB1002802D06D1CF1E7284630BD83
:1002300010B5431C02E010F8011B71B18107FAD11F
:100240004FF0013202C88C1A8C4314EAC211F9D063
:10025000C01A0A0603D0C01E10BDC01A10BD0A0481
:1002600001D0801E10BD0902FCD0401E10BD4FF011
:10027000000200B5134694469646203922BFA0E8F6
:100280000C50A0E80C50B1F12001BFF4F7AF090702
:1002900028BFA0E80C5048BF0CC05DF804EB8900F3
:1002A00028BF40F8042B08BF704748BF20F8022B36
:1002B00011F0804F18BF00F8012B704710B50446AD
:1002C00010F0030F08BF11F0030F40F015804FF03E
:1002D000013E121FC0F20E8051F8043BA3EB0E0C3E
:1002E0002CEA030C1CEACE1C08BF40F8043BF0D0FB
:1002F000A1F1040102F10402521E08DB11F8013BD6
:10030000002B00F8013BF7D1114600F0C1F8204660
:1003100010BD70477047704700487047600200206A
:1003200010B5FFF7F9FF006810BD10B50446FFF7E0
:10033000F3FF046010BD00000FB4002300B589B0C6
:100340000CA900910B99CB60214B7B440693214B68
:100350007B44079304236FF00042CDE901321E4A2B
:100360007A446B4608920246002004F0C7F809B0B0
:100370005DF814FB70B506464FF0FF3015460C468D
:10038000324686B00091CDE9010169460020049013
:1003900004A8FFF7D1FF02460498211825B108B13F
:1003A000084600E020462860049800280DD0002A66
:1003B00002DD0098884208D03246081B6946009446
:1003C000CDE9010404A8FFF7B7FF06B070BD000037
:1003D000B1010000C9010000890100002DE9F047CA
:1003E00091460F4680460446002614F8015B2DB165
:1003F00000F074F80068405DC007F6D12B2D02D0E4
:100400002D2D18D0641E4A463946204600F097F834
:1004100027B13968A14201D1C7F800804FF002042A
:1004200071050BD54042002803DDFFF775FF04601E
:10043000A007BDE8F08746F48066E4E70028F8DA14
:10044000FFF76AFF04606FF00040F2E72DE9F0412A
:1004500015460E46040002D12C6804B90BA42046B0
:1004600000F0CCF80444207870B127463146384675
:1004700000F0B4F80444207810B1002004F8010B17
:1004800038462C60BDE8F0810027F9E70000000045
:100490004FF000020429C0F0128010F0030C3FF46A
:1004A000E8AECCF1040CBCF1020F18BF00F8012B30
:1004B000A8BF20F8022BA1EB0C01FFF7DABE5FEA20
:1004C000C17C24BF00F8012B00F8012B48BF00F8C5
:1004D000012B7047004870476002002010B500F003
:1004E000C1F8001D10BD00BF452E000010B5044628
:1004F000FFF7F4FF0068005D00F0010010BD4268E6
:1005000042B1016811F8013B23B1521EC0E900124B
:10051000184670470121C160881E704742685AB171
:10052000C368016843B983688B4205D0491E521CD9
:10053000C0E90012002070474FF0FF3070472DE9EE
:10054000F05F824615468B4600270AF10104B94642
:100550000078302801D09DB113E014F8010B012779
:10056000782803D0582801D045B10AE00DB1102DEC
:1005700007D1002714F8010B102502E0082500E040
:100580000A250026B0460EE005FB080005FB06F133
:1005900001271FFA80F801EB1046B6F5803F00D323
:1005A000B94614F8010B294600F060F80028EBDA90
:1005B000BBF1000F05D00FB1641E00E05446CBF82C
:1005C0000040B9F1000F06D0FFF7A6FE022101603E
:1005D000C81EBDE8F09F48EA0640FAE730B503467A
:1005E0001D781DB10A4603E0AC4201D1181A30BD96
:1005F00012F8014B002CF7D15B1CF1E730B5034634
:100600001D783DB10A4612F8014B1CB1AC42FAD13B
:100610005B1CF5E7181A30BD7546FFF75BFFAE4669
:1006200005006946534620F00700854618B020B5FE
:10063000FFF7C6FDBDE820404FF000064FF0000771
:100640004FF000084FF0000B21F00701AC46ACE87A
:10065000C009ACE8C009ACE8C009ACE8C0098D46E7
:100660007047000000487047800200203A2800D2FE
:10067000303820F02002412A01D3A2F1370088420D
:1006800001D34FF0FF3070472DE9FF4F06468BB086
:100690000878FF2806D0491C2D2805D000244FF0EB
:1006A000000908E000200CE00124F8E709EB8903C9
:1006B000491C00EB43090878FF28F7D114B1C9F1B0
:1006C00000008146107800252C46AA4629462D2890
:1006D00001D02B2804D1521C2D2813D00020824693
:1006E0008B461078FF280FD04FF0000C0A21521CC7
:1006F000A5FB017804FB018105FB0C11C5194BEB2F
:100700000104EEE70120EAE7002108464FF000006F
:10071000BAF1000F02D000EB80004008C0F381570F
:10072000012F01DD4FF0FF370E9955EA040009EB68
:1007300001080BD04FF0020918F5FA7F16DA4FEADC
:10074000CA70002F706008DD012007E04FEACA7010
:10075000C6E900B00FB0BDE8F08F00203060FFF7B1
:10076000DBFDC0F800901821084616E0B8F5FA7FC6
:1007700018DD002F02DAF748784401E0F6487844A3
:10078000D0E90010C6E9001040EACA707060FFF7B7
:10079000C3FDC0F80090142108460FB0BDE8F04F2B
:1007A00003F049BE002108464FF00000B8F10001F7
:1007B000099002DAC7F1000200E03A4601DAC8F116
:1007C000000106A800F026FA06AB93E8070003AB89
:1007D00083E8070044F23E005BEA040100905846BB
:1007E00004D144F21E012C465D460091210C0904FF
:1007F000014306D10099240444EA15442D0410391C
:10080000009104F07F41014306D10099240244EA9B
:1008100015642D020839009104F07041014306D19E
:100820000099240144EA15742D01091F009104F078
:100830004041014306D10099A40044EA9574AD00FB
:10084000891E009104F00041084304D100986D19FD
:100850006441401E00904FF001033A466846B8F1EB
:10086000000FCDE9014503A902DD00F014FF01E00E
:1008700000F0E7FEBAF1000F04460D4601D084F007
:100880000044002108464FF00000099940F2FF772C
:10089000484010F00C0F07D124F00040284303D04B
:1008A000C4F30A50B84212D1FFF736FDC0F80090E9
:1008B000C4F30A50B8420AD1A8487844D0E90010DD
:1008C000C6E9001004F000410843706042E7C6E941
:1008D00000543FE72DE9FF4F1F464FF0000A4FF04D
:1008E000FF38454691B0D7E90146CDF83CA0FFF767
:1008F000B9FEC0680168405C1090B96912986D1C1F
:100900008847396A814688470028F6D1B9F1FF3F08
:100910000AD0002E24F4D06411DDB9F12B0F08D0D9
:10092000B9F12D0F0BD102E0404615B013E744F4A6
:100930008064B96912986D1C8847761E81466005EF
:1009400004A901D52D2000E02B20002E01F1010B80
:100950000DF130088DF810003FDDB9F1690F08D0B6
:10096000B9F1490F05D0B9F16E0F02D0B9F14E0FB0
:100970001CD13B4601A8009580E85002DDE9121227
:100980006FF0020003F0BEFDC11CCED10EE0B969CC
:1009900012986D1C884781461398761E44F40074A3
:1009A00005600F98401C002E0F9016DDB9F1300F36
:1009B000EDD0B9F1780F02D0B9F1580F0DD10F98E1
:1009C00001280AD13B46CDE90054DDE91212001F8F
:1009D000029603F095FDC11CA7D1109989453ED11F
:1009E00044F0800406E01399681CAAF1010A44F45B
:1009F00000740860B9696D1C1298761E884730280B
:100A00008146F0D02BE01099894505D1200603D40A
:100A1000761E44F0800418E0484602F038FB08B324
:100A2000761E0DF123018B4544F4007408D2A9F120
:100A300030000BF8010B200607D5AAF1010003E0F6
:100A4000200602D40AF101008246A00502D51399BE
:100A5000681C0860B96912986D1C88478146002E91
:100A6000D1DC53E0002E51DDB9F1650F02D0B9F1B0
:100A7000450F4BD1A00549D5B9696D1C1298761E5A
:100A800024F440748847002E81460CDD2B2804D0C6
:100A9000B9F12D0F07D144F48074B96912986D1C17
:100AA0008847761E8146E00501D52D2100E02B21E7
:100AB00008F8011BCDF8008021E0761E0DF1390108
:100AC000884544F400740CD2A9F1300010F0FF0006
:100AD00088F8000002D10099884509D908F1010879
:100AE00006E0E00501D51E4801E042F20F708246A3
:100AF000B96912986D1C8847814613980560002ECD
:100B000004DD484602F0C3FA0028D6D1F9691298EC
:100B10008847FF2053468BF8000088F8000000202B
:100B20000A900B9004AA0CA90AA8FFF7ADFDA00536
:100B300002D46FF00100F8E614F0240F12D0E007A1
:100B40001CD13868DDE90A12031D3B600068C0E96A
:100B5000001213E0684400005A4400001E430000E5
:100B6000F1D8FFFF0AA9684602F020FAE00705D194
:100B70003868009A011D3960006802602846D4E692
:100B800010B50446AFF300802046BDE81040FFF7E3
:100B900002BB00004FF0013C50F8042B51F8043B1D
:100BA0009A4221D1A2EB0C03934313EACC1317D141
:100BB00050F8042B51F8043B9A4215D1A2EB0C03D8
:100BC000934313EACC130BD150F8042B51F8043B98
:100BD0009A4209D1A2EB0C03934313EACC13DBD066
:100BE0004FF00000704700BFD01A01BAB1FA81F18E
:100BF00001F0180122FA01F0CB40C1F12001DBB273
:100C0000C0B2C01A2CFA01F3D11A914311EAC311F0
:100C1000E6D170472DE9F047814616468AB035483F
:100C200078440DC88DE80D0032487844801C03AC30
:100C30000DC884E80D0041F69B300844372190FB35
:100C4000F1F290FBF1F5A5F1800501FB12041B3CCC
:100C500002D56442012000E00020DFF898A0804621
:100C60000027FA44AAF1BE0A0EE0E0070AD0324695
:100C7000684607EB470101230AEB810100F0F6FC0F
:100C80008DE8070064107F1C002CEED1194F7F44C3
:100C9000AE3F19E0E80715D007EB04100DF1180A74
:100CA00090E80E008AE80E00C068F04201D1981961
:100CB00008903246012306A903A800F0D7FC03AB35
:100CC00083E807006D10641C002DE3D14FF0010391
:100CD00032466946B8F1000F03A802D000F09CFC30
:100CE00001E000F0C3FCC9E90001C9F808200AB01E
:100CF000BDE8F087803F00002DE9FF4F1F464FF011
:100D00003C0987B04FF00042DDE9141001F1010801
:100D1000DDF858A002EA4050039000200590834679
:100D2000054604460490B969461E08988847AAF10A
:100D3000010A0290BAF1000F3BDD02982E2815D06F
:100D40001021FFF793FC00282EDB4FF0010B0599D3
:100D5000014317D0B9F1000F0BDB4A46C11700F071
:100D6000FBF905430C43A9F1040905E001200490B7
:100D70000BE008B145F0010501200590049820B969
:100D8000361D02E0049800B1361FB969089808F1D1
:100D900001088847BBF1000FAAF1010A0290C9D0EF
:100DA0000999C1F80080C5E70298702808D050283A
:100DB00006D0F96908988847BBF1000F14D04FE0BE
:100DC000002002900120BBF1000F049009D0B96906
:100DD000089808F101088847AAF10109B9F1000F44
:100DE00007DCF969089888476FF001000BB0BDE88F
:100DF000F08F2B2804D02D280CD14FF0FF30049019
:100E0000B969089808F101088847A9F10109B9F101
:100E1000000FE6DD411CE4D00A21FFF727FC002883
:100E2000DFDB029908F1010801EB810100EB4100D1
:100E30000290B969089888470A21FFF717FC099AB8
:100E4000A9F10109B9F1000FC2F8008001DD002805
:100E5000E7DAF969089888470499029800FB016667
:100E600055EA040004D004F04041090002D006E035
:100E7000039898E0A40044EA9574AD00B61E04F00F
:100E80000041080002D16D196441761E159810F0DA
:100E9000240F03D04FF00B095C4803E04FF0280902
:100EA0006FF07D008246564507DAAAEB06018944B9
:100EB000B9F1410F01DD4FF0410901200021A9F1F5
:100EC000010200F049F9024628400B462140084340
:100ED00001D0012100E00021501E029143F1FF31B9
:100EE00028402140084301D0012000E00020029961
:100EF000834651EA0B014FD0002108464FF0000015
:100F0000039900F4400039B100EB80004FF4400138
:100F100000EBD07001EA60008015012802DD4FF07F
:100F2000FF3000E013D0401C36D0029860B3BBF114
:100F3000000F0CD14A460120002100F00DF9284095
:100F40002140084301D0012000E00020E0B1012051
:100F50004A46002100F000F9034640190A46614163
:100F60002D1A8C4111D3B9F1400F09DD159810F0FD
:100F7000240F02D0AAF1340603E0AAF1170600E01C
:100F8000761C00254FF0004406E05B1E42F1FF3264
:100F900020EA030521EA0204CAF10100B04206DAA0
:100FA0001B49039808430190002000900EE0039A2B
:100FB000C4F3D321E80A0A43164940EA44500A43DD
:100FC0003146CDE90002684602F056F8159810F057
:100FD000240F0BD01598C00715D13868DDE9001231
:100FE000031D3B600068C0E900120CE002A86946DE
:100FF00001F0DCFF1598C00705D13868029A011D81
:101000003960006802604046F0E6000002FCFFFF25
:101010000000F07F0000F03F2DE9FF4F92461D4693
:1010200085B04FF00041DDE9124BDDE914727F1EFF
:1010300001EA4B50414940F0FF4940EA01080021D4
:1010400022F020004928049102D04E2828D04CE0FC
:101050003BA0012607C88DE80700A9690698641C13
:1010600088477F1E014606D41DF8060018B121F0FE
:10107000200181420BD0E96906988847032E34D0BD
:10108000082E32D06FF0010009B0BDE8F08F761C59
:10109000032E01D0082EE0D1601CCAF80000DCE766
:1010A000A9690698641C88477F1E2AD420F0200076
:1010B000412826D1A9690698641C88477F1E20D440
:1010C00020F020004E281CD1A9690698641C88478E
:1010D0007F1E48F4002849F48009CAF8004001D472
:1010E000282806D0E969069888475FEACB7012D0B5
:1010F00022E0A9690698641C88477F1E01D4002855
:1011000003DAE96906988847BCE72928F1D1641C0D
:10111000CAF80040E9E71BF0240F07D028680499BB
:10112000031D2B600068C0E9001805E02868021D57
:101130002A600068C0F800902046A5E70000F07F14
:10114000494E46494E4954590000000001491820B3
:10115000ABBEFEE726000200B2F120030AD5C2F1C1
:10116000200301FA02F120FA03F300FA02F041EA47
:101170000301704700FA03F14FF000007047704719
:1011800020F07F4C80EA030023F07F47ACEB07039D
:1011900003F57C5300F0004003F1FF032DE9804983
:1011A0004FEA154B09B44FEA144325EA0B4E24EAE3
:1011B00003480FF2042606EB132749083E785FEA3E
:1011C000320203FB0667C7F5000707FB06F64FEA86
:1011D00054374FEAD64606F1020607FB066CCCF1FF
:1011E000005C4FEA1C472CEA074C07FB06F40CFB9B
:1011F00006F504EB15464FEA961634BF00204FF073
:1012000000404FEAD13706FB07FC4FEA1C4C0CFBB1
:101210000BF7D21B03FB0CF761EB07010CFB0EF77E
:10122000B0EB074072EB17420CFB08F734BFA2EBA0
:101230000742B2EB074261EB17414FEA0C444FEA19
:10124000910706FB07FC4FEA1C4C0CFB0BF7B0EBBD
:10125000C74072EB573203FB0CF734BFA2EBC74217
:10126000B2EBC74261EB57310CFB0EF7B0EBC70096
:1012700072EB57720CFB08F734BFA2EBC702B2EB5C
:10128000C70261EB5771039F4FEA816141EA9211F6
:1012900004EBCC044FEAD1374FEA826206FB07FC2D
:1012A00042EA90124FEA80604FEA1C4C0CFB0BF7AD
:1012B000D21B03FB0CF761EB07010CFB0EF7B0EB45
:1012C000074072EB17420CFB08F734BFA2EB074252
:1012D000B2EB074261EB17414FEA8C554FEA910799
:1012E00004EB9C2406FB07FC4FEA1C4C0CFB0BF7A1
:1012F000B0EBC74072EB573203FB0CF734BFA2EBE5
:10130000C742B2EBC74261EB57310CFB0EF7B0EBB3
:10131000C70072EB57720CFB08F734BFA2EBC70291
:10132000B2EBC70261EB577115EB4C254FEA8161B7
:1013300041EA92114FEA82624FEAD13742EA9012B3
:1013400006FB07FC44F100044FEA80604FEA1C4CA6
:101350000CFB0BF7D21B03FB0CF761EB07010CFB3B
:101360000EF7B0EB074072EB17420CFB08F734BFE7
:10137000A2EB0742B2EB074261EB174115EB1C15DC
:101380004FEA813141EA92414FEA823242EA904289
:101390004FEA80304FEA0C7644F1000448EA0343F8
:1013A0004EEA0B484FF0000EB2EB080C71EB03074E
:1013B00024BF624639464EEB0E0E4FF0000B00186C
:1013C000524149414BEB0B0BB2EB080C71EB03079D
:1013D0007BF1000B24BF624639464EEB0E0E4FF0F8
:1013E000000B0018524149414BEB0B0BB2EB080CC0
:1013F00071EB03077BF1000B24BF624639464EEBCD
:101400000E0E51EA020718BF46F0010616EB0E76E3
:1014100055F1000254F1000103D5BDE88901BDE892
:101420000088BDE88901BDE80048B619524141EB8A
:101430000101A3F10103704780807F7E7D7C7B7A70
:101440007978777676757473727171706F6E6E6D70
:101450006C6C6B6A6A696868676666656464636316
:1014600062616160605F5F5E5E5D5D5C5C5B5B5A9C
:101470005A59595858575756565555555454535309
:1014800052525251515050504F4F4F4E4E4D4D4D64
:101490004C4C4C4B4B4B4A4A4A49494948484847AF
:1014A00047474746464645454544444444434343ED
:1014B000434242424241414146EA0646A3F5705347
:1014C0004FEA164646EA42564FEAD22242EA4152D3
:1014D00010B54FEAD121A3F1010300F02FF820F05D
:1014E000004000F1020C00F0004701EB00501146F3
:1014F000BCF5006F40EA070000D210BDBAF1000F42
:101500000AD01CB503B44FF004004FF004014FF0B3
:1015100000000FBCBDE810404FF00001BBF1010F0F
:10152000B9BF04484FF0FF310348002140EA0700EB
:1015300010BD00BFFFFFEF7F0000F07F002B9C4637
:1015400030D477002BD01CB54FEA370703B44FF0E7
:1015500010004FF01001BAF1000F06D0BCF1000FDF
:10156000DCBF40F0080040F008014FF000000FBC65
:10157000BDE810400BF1010BBBF1010F08BF5FEAA2
:10158000170722BF12F1010211F101014FF00041D2
:1015900043F1000300F0004043EA00007047F9D334
:1015A0005708D0E746EA064613F1400F4FEA1646C1
:1015B0001FDD13F1200FDFBF16430A460021203341
:1015C0005B42BED0C3F1200746EA064602FA07F79F
:1015D0004FEA164646EA0706C3F1200722FA03F24D
:1015E00001FA07F721FA03F14FF0000342EA07027C
:1015F000A7E746EA020646EA06464FEA164646EAE4
:101600000106BCBF46EA0646360C4FF000034FF019
:1016100000024FF0000194E72DE9804C9A46934672
:1016200070B491E8380007C831EA400C48BF34EA8A
:10163000430C03D5FFF7A4FDFFF780FFF0BCBDE826
:10164000008C2DE9804C9A46934670B491E838009E
:1016500007C831EA400C48BF34EA430C03D5FFF712
:101660008FFDFFF729FFF0BCBDE8008C2DE9804C11
:101670009A46934670B491E8380007C810F0804F3E
:1016800008BF13F0804F03D100F01AF8FFF756FFA0
:10169000F0BCBDE8008C2DE9804C9A46934670B4AE
:1016A00091E8380007C810F0804F08BF13F0804F52
:1016B00003D100F005F8FFF7FFFEF0BCBDE8008C99
:1016C00020F07F4780EA030023F07F4C07EB0C03F8
:1016D000A3F57C5300F00040A3F1FE0392F0000F4D
:1016E00000F0B38095F0000F00F077802DE90149FC
:1016F0004FEA11404FEA144621EA004800FB06FC7D
:1017000024EA064708FB06F607FB08F800FB07F784
:1017100018EB06484CEB164C4FEA124B18EB0748F7
:101720004FEA15464CEB174022EA0B4E0BFB06FC2A
:1017300025EA06470EFB06F607FB0EFE0BFB07F736
:101740001EEB064E4CEB164C4FF000061EEB074E00
:101750004CEB174B18EB0B0840F1000018EB0E0B8D
:1017600058EB000840F100008F1A4FF000013CBF19
:10177000C943661B14BFB5EB040C00213CBFC94331
:10178000F61B4FEA17444EEA8E0E27EA04454FEA4D
:101790001C4704FB07622CEA074C05FB07F70CFB10
:1017A00005F604FB0CFC16EB074642EB174216EB62
:1017B0000C4642EB1C421BEB060658EB0202414171
:1017C00046EA9E0601D5BDE80189B619524141EBB2
:1017D0000101A3F10103BDE801894FEA14454FEA75
:1017E000114724EA054621EA074C05FB07F406FBEE
:1017F00007F70CFB06F105FB0CFC11EB074144EB72
:1018000017444FEA124711EB0C4144EB1C4422EA07
:10181000074C05FB07F206FB07F70CFB06F605FB7A
:101820000CFC16EB074642EB174216EB0C4642EB5C
:101830001C456A1854F1000148BF7047B61952415F
:1018400041EB0101A3F10103704795F0000F37D080
:101850004FEA11424FEA144721EA024624EA074CB4
:1018600002FB07F106FB07F70CFB06F402FB0CFC7E
:1018700014EB074441EB17414FEA154714EB0C44B6
:1018800041EB1C4125EA074C02FB07F506FB07F775
:101890000CFB06F602FB0CFC16EB074645EB174566
:1018A00016EB0C4645EB1C42121951F1000148BFE2
:1018B0007047B619524141EB0101A3F10103704792
:1018C0004FEA14454FEA114724EA054621EA074C3E
:1018D00005FB07F106FB07F70CFB06F24FF00006CD
:1018E00005FB0CFC12EB074241EB174112EB0C42DB
:1018F00051EB1C4148BF7047921841EB0101A3F125
:101900000103704700BFFEE77047000010B50120DB
:1019100000F0CAF800283AD0142001F0B5FC0121EB
:101920001B4800F060F978BB1A48007810B1012814
:1019300028D113E04FF07E511748006802F066FA94
:101940001549086015491448006802F0C3FC02D22A
:1019500012481149086000F083FC14E04FF07C51FC
:101960000F48006802F052FA0D4908600D490C4812
:10197000006802F0AFFC02D20A480949086000F092
:101980006FFC00E000BF00BF012000F087F810BD31
:10199000000C0140300000203400002000004842CC
:1019A000380000200000C84210B5022000F07CF88A
:1019B00000283DD0142001F067FC02211D4800F0F2
:1019C00012F978BB1C48007810B101282BD113E024
:1019D0004FF07E511948006802F0B8FC17490860C2
:1019E00017491648006802F075FB02D214481349E3
:1019F000086000F035FC17E04FF07C51114800689A
:101A000002F0A4FC0F4908604FF07C510D480068BB
:101A100002F060FB03D24FF07C500A49086000F0EE
:101A20001FFC01E001E000BF00BF022000F036F81B
:101A300010BD0000000C01403000002034000020E8
:101A40000000A0403800002010B5802000F02CF8E5
:101A5000F0B1142001F018FC80210E4800F0C3F80A
:101A600098B90D48007810B101280CD105E001208B
:101A70000949087000F0F4FB06E0022006490870EE
:101A800000F0EEFB00E000BF00BF802000F006F891
:101A900010BD0000000C014030000020014908602A
:101AA0007047000014040140014600200022074B4B
:101AB0001B6803EA0102054B14331B680B4013B18A
:101AC0000AB1012000E0002070470000000401403E
:101AD0002DE9F041024600250026002000230024C5
:101AE000002791F803C00CF00F0591F803C00CF02B
:101AF000100CBCF1000F03D091F802C04CEA0505B0
:101B000091F800C0BCF1000F31D0146800202BE028
:101B10004FF0010C0CFA00F3B1F800C00CEA030618
:101B20009E4220D183004FF00F0C0CFA03F7BC4308
:101B300005FA03FC4CEA040491F803C0BCF1280F39
:101B400006D14FF0010C0CFA00FCC2F814C00AE0F8
:101B500091F803C0BCF1480F05D14FF0010C0CFA0D
:101B600000FCC2F810C0401C0828D1D31460B1F8A2
:101B700000C0BCF1FF0F34DD546800202EE000F1FE
:101B8000080C4FF0010808FA0CF3B1F800C00CEA99
:101B900003069E4221D183004FF00F0C0CFA03F78D
:101BA000BC4305FA03FC4CEA040491F803C0BCF101
:101BB000280F05D100F1080C08FA0CF8C2F81480BF
:101BC00091F803C0BCF1480F07D100F1080C4FF0A9
:101BD000010808FA0CF8C2F81080401C0828CED37F
:101BE0005460BDE8F0810246002093680B400BB1C1
:101BF000012000E00020704741617047016170479B
:101C00000AB1016100E04161704700002DE9FC4725
:101C100004460D460022134B2046294601F08AFC5B
:101C2000074601F01BFE0646642106FB01F001F0A9
:101C300044FE074622462B4601F0C6FFCDE90001CF
:101C40000022094BDDE9000101F074FC07468846DB
:101C5000304601F032FE81463A46434601F0AEFB83
:101C6000BDE8FC870000594000004E400048704726
:101C70004001002000B587B0012144F2040000F0CB
:101C800021FE4FF40070ADF8180018208DF81B00ED
:101C900003208DF81A0006A92148FFF719FF4FF419
:101CA0008060ADF8180004208DF81B0006A91C48C0
:101CB000FFF70EFF4FF4165002900020ADF80C0015
:101CC000ADF80E00ADF81000ADF814000C20ADF822
:101CD000120002A9134801F0E7F825208DF804004E
:101CE00001208DF805008DF806008DF8070001A889
:101CF00000F0F8FB012240F225510A4801F0AFF84C
:101D00000121084801F075F8B8210748FEF7AFFA3D
:101D10000020064908800649087007B000BD000091
:101D20000008014000380140400100201800002058
:101D30001A00002010B50446242C0FD100201F49A2
:101D4000088001201E4908701C4801880088401C3A
:101D50001A4A10801B484454002010BD0A2C1BD185
:101D600017480078C0B100201649144A12888854D8
:101D70001349087014A11348FEF748FA20B914A1BA
:101D80001048FEF743FA28B10E4800F025F808B1D4
:101D90000120E2E70020E0E70948007858B1074851
:101DA0000088FF2807DA054801880088401C034A9C
:101DB0001080044844540020CFE7000018000020A1
:101DC0001A00002040000020244750524D430000DC
:101DD00024474E524D4300002DE9F04186B0804625
:101DE00000257F2241468848FEF768FA0021864890
:101DF000353880F8B41085A14046FEF701FA044654
:101E0000F7E00A2D06D2DFE805F0050649546378AD
:101E1000879EACBAE5E02046FEF70AFA06283CD3D6
:101E20000222214601A8FEF749FA00208DF806009B
:101E300001A8FEF7D7F97449353908700222A11CB0
:101E400001A8FEF73BFA00208DF8060001A8FEF776
:101E5000C9F96D49353948700222211D01A8FEF7E4
:101E60002DFA00208DF8060001A8FEF7BBF966499F
:101E7000353988702046FEF7DBF907280DD9032293
:101E8000E11D01A8FEF71AFA00208DF8070001A84D
:101E9000FEF7A8F95C4935398880A2E0207841280E
:101EA00001D1012000E000205749353981F8340084
:101EB00097E02046FEF7BCF948B1204601F0EEF865
:101EC0000646FFF7A3FE504A353AC2E9040188E00E
:101ED0002046FEF7ADF978B120784B4935390876C0
:101EE0000846007E532807D1D1E9040181F0004162
:101EF000454A353AC2E9040173E02046FEF798F9F5
:101F000048B1204601F0CAF80646FFF77FFE3E4A78
:101F1000353AC2E9080164E02046FEF789F988B144
:101F200020783949353981F82800084690F828008A
:101F3000572807D1D1E9080181F00041324A353AEA
:101F4000C2E908014DE02046FEF772F940B1204693
:101F500001F0A4F8064601F0FFF92B493539C862B3
:101F60003FE02046FEF764F940B1204601F096F8C4
:101F7000064601F0F1F924493539086331E020467D
:101F8000FEF756F906282BD30222214601A8FEF7B8
:101F900095F900208DF8060001A8FEF723F91A49EB
:101FA000353988710222A11C01A8FEF787F90020AB
:101FB0008DF8060001A8FEF715F913493539C871E7
:101FC0000222211D01A8FEF779F900208DF80600F4
:101FD00001A8FEF707F900F5FA600B4935390881C9
:101FE00000BF00BF09A10020FEF70AF90446681CE3
:101FF000C5B2002C7FF405AF0348353890F83400A3
:1020000006B0BDE8F0810000750100202C00000042
:102010002DE9FC5F4FF0804000F0A6FE804674483A
:10202000C5684068724908600846C0F804800069C5
:10203000A84206D1084640680968401A6C49886081
:102040000CE06B490969681A69490968C1EB0041EC
:10205000674A52681144664A916000BF644805614E
:102060008068642804D3624880686249884201D944
:10207000BDE8FC9F5E48816890F82020143040F84D
:102080002210143890F82000401C594981F8200093
:10209000084690F82000032805DB002081F8200086
:1020A000012081F82100524890F82100C8B1504B1E
:1020B00058699969DA69884201D8914203D98A42FC
:1020C00003D8814201D80C460AE0814201D89042EF
:1020D00003D9824203D8884201D8044600E014465E
:1020E00001E0434884684248406A401C40494862D5
:1020F000012081F8440000208864002C70D04FF04B
:102100007E59DFF8F4A0204601F0D0FF83463B491A
:1021100002F014F806463146504601F0E5FE074647
:102120003348406A012803D9314890F8210010B99A
:102130002F4887620FE02E48816A314801F0FEFF88
:10214000834639462F4801F0F9FF5946019001F0C6
:102150005DFE27498862264AD16C906A02F0BAF87F
:1021600003D22348806A2249C8642148406A012872
:102170002DD91F4890F8210048B31D49886A22498B
:1021800001F0DCFF01901A49C86A1F4901F0D6FF2F
:1021900000901E49304602F09DF814D2DDE900108F
:1021A00002F0D4F88346314601F09EFE1049C86320
:1021B0000A46116CD06B02F08DF807D20C48C06B48
:1021C0000B49086402E000200949C86302E00020CE
:1021D0000749C8630648806A0549C86205E0FFE709
:1021E000002003498862C863C86200BF40E700005E
:1021F000F8010020404B4C0066666640BD378635CE
:102200009A99993E3333333FE4388E3E17B7D1382D
:10221000104890F8440001281BD10E48806C401CE7
:102220000C4988640846806C962812D3002081F8F7
:1022300044008862C863C862886407490872054917
:1022400081F8200081F82100084600214161816168
:10225000C1617047F80100205002002000BFFEE776
:102260002DE9F04700F094F975A20121084600F02D
:10227000F3FA7648007820B101283DD002283AD1FF
:1022800075E073A20121022000F0E6FA74A2052194
:10229000032000F0E1FA7448006801F0E7FE074609
:1022A000384601F003FF80466F480168404602F05F
:1022B00042F806466D4901F041FF054601F0D6FEA1
:1022C0000A21B0FBF1F201FB120402233A4601217C
:1022D000032000F09FFA2E220321084600F060FA46
:1022E000012322460421032000F094FA60A2012178
:1022F000042000F0B1FAA0E061A20121022000F068
:10230000ABFA64A20521032000F0A6FA6248006837
:1023100001F0ACFE0746384601F0C8FE80465E4834
:102320000168404602F007F80646504901F006FFF2
:10233000054601F09BFE0A21B0FBF1F201FB1204FD
:1023400002233A460121032000F064FA2E220321E1
:10235000084600F025FA012322460421032000F05C
:1023600059FA4EA20121042000F076FA65E050A24D
:102370000121022000F070FA4EA20121032000F09A
:102380006BFA4EA20121042000F066FA364800687C
:1023900001F06CFE8046404601F088FE82463248DD
:1023A0000168504601F0C7FF0746304901F0C6FEFC
:1023B000064601F05BFE0A21B0FBF1F201FB1204BC
:1023C000022342460721032000F024FA2E2209218D
:1023D000032000F0E5F9012322460A21032000F042
:1023E00019FA2D48006801F041FE8146484601F087
:1023F0005DFE824628480168504601F09CFF074672
:102400001A4901F09BFE064601F030FE0A21B0FB9E
:10241000F1F201FB120502234A460621042000F0D6
:10242000F9F92E220821042000F0BAF901232A46E6
:102430000921042000F0EEF900BF00BFBDE8F087DD
:1024400053657474696E67730000000030000020EB
:102450005461726765742053706565643A000000CA
:102460006B6D2F6800000000340000200000204148
:10247000555020746F206368616E6765000000002E
:102480005461726765742044697374616E63653A60
:10249000000000006B6D0000380000205072657372
:1024A000732053455420746F2073617665000000DB
:1024B0004F4B000053706565643A000044697374C3
:1024C0003A00000000BFFEE710B54FF4A06000F036
:1024D00041F800F011FB00F0F1F8FFF7CBFB10BD65
:1024E0007047000070B5002100230F22C47804B3A8
:1024F000154C246804F4E064C4F5E064210AC1F1D9
:102500000403CA40447804FA03F184781440214358
:1025100009010E4C0678A155047804F01F0501242A
:10252000AC4005786D11AD0005F1E025C5F800411E
:1025300009E0047804F01F050124AC40044D06783E
:10254000761145F8264070BD0CED00E000E400E097
:1025500080E100E002490143024A11607047000037
:102560000000FA050CED00E010B5002807DA0A07B4
:10257000140E054A00F00F031B1FD45403E00A0792
:10258000130E024A135410BD18ED00E000E400E001
:1025900070B500240EE00021204600F0F0F8002580
:1025A00004E0002000F07CF9681CC5B2802DF8DB47
:1025B000601CC4B2082CEEDB70BD000008B5012120
:1025C000082000F07FF914208DF8030003208DF817
:1025D00002004FF48070ADF8000069460A48FFF72A
:1025E00077FA4FF40070ADF8000069460648FFF72F
:1025F0006FFA012211020448FFF702FB0122510287
:102600000148FFF7FDFA08BD000C014070B5054612
:10261000002415E08020204100EA05024FF40071FB
:102620000E48FFF7EDFA012211020C48FFF7E8FA15
:1026300000224FF480710948FFF7E2FA601CC4B22F
:10264000082CE7DB012211020448FFF7D9FA002227
:102650004FF480710148FFF7D3FA70BD000C0140C0
:1026600010B5012251020A48FFF7CAFA01221102ED
:102670000748FFF7C5FA00224FF400710448FFF73E
:10268000BFFA00224FF480710148FFF7B9FA10BD7C
:10269000000C014010B500224FF400710648FFF70E
:1026A000AFFA012211020448FFF7AAFA01225102EF
:1026B0000148FFF7A5FA10BD000C014070B50024D9
:1026C00006E0002500E06D1CB5F57A7FFBD3641CA5
:1026D000B4F57A7FF5D3FFF771FFAE2000F0D0F8A4
:1026E000D52000F0CDF8802000F0CAF8A82000F036
:1026F000C7F83F2000F0C4F8D32000F0C1F8002054
:1027000000F0BEF8402000F0BBF8A12000F0B8F8BF
:10271000C82000F0B5F8DA2000F0B2F8122000F07E
:10272000AFF8812000F0ACF8CF2000F0A9F8D92054
:1027300000F0A6F8F12000F0A3F8DB2000F0A0F8EC
:10274000302000F09DF8A42000F09AF8A62000F0B8
:1027500097F88D2000F094F8142000F091F8AF2045
:1027600000F08EF8FFF714FF70BD10B5024601208F
:1027700000E050430B1EA1F10101FAD110BD70B56C
:1027800005460C4645F0B00000F07AF8102141EA09
:10279000141000F075F804F00F0000F071F870BD2F
:1027A0002DE9F04105460E461746721ED206110E5F
:1027B0006A1E5206100EFFF7E2FF002409E0A7F19F
:1027C0002001134A02EB0111085D00F069F8601C5A
:1027D000C4B2082CF3DB721ED206110E6A1E01234E
:1027E00003EB4202D0B2FFF7CAFF00240BE0A7F1CF
:1027F0002001074A02EB011204F10801505C00F0CD
:102800004FF8601CC4B2082CF1DBBDE8F081000079
:10281000384500082DE9F04780460E4617461D460C
:10282000002415E0281B411E0A20FFF79EFFB7FB7E
:10283000F0F00A21B0FBF1F201FB120000F13009C7
:102840003019C1B24A464046FFF7AAFF601CC4B225
:10285000AC42E7DBBDE8F0872DE9F04107460E46C4
:102860001546002407E02A5D3019C1B23846FFF74B
:1028700097FF601CC4B2285D0028F4D1BDE8F08148
:1028800010B50446FFF7ECFE7820FFF7BFFE0020EE
:10289000FFF7BCFE2046FFF7B9FEFFF7FBFE10BDB9
:1028A00010B50446FFF7DCFE7820FFF7AFFE4020AE
:1028B000FFF7ACFE2046FFF7A9FEFFF7EBFE10BDC9
:1028C0007047000029B1064A92690243044B9A619D
:1028D00004E0034A92698243014B9A617047000009
:1028E0000010024030B500210022002400232D4DAD
:1028F0006D6805F00C0121B1042905D0082923D108
:1029000005E0294D056022E0274D05601FE0254DBB
:102910006D6805F47012234D6D6805F4803402254E
:1029200005EB92421CB9214D554305600BE01D4D4E
:102930006D6805F400351DB11C4D5543056002E07E
:10294000194D5543056002E0174D056000BF00BFFB
:10295000144D6D6805F0F0010909154D6B5C0568B3
:10296000DD4045600F4D6D6805F4E061090A104DCA
:102970006B5C4568DD4085600A4D6D6805F460510B
:10298000C90A0B4D6B5C4568DD40C560054D6D683F
:1029900005F44041890B074D6B5CC568B5FBF3F549
:1029A000056130BD0010024000127A0000093D00B0
:1029B000000000201000002010B508480068401CEE
:1029C00006490860084600680A21B0FBF1F201FBE5
:1029D000120008B9FFF71CFC10BD00002C000020FD
:1029E000704710B500F002F810BD00000CB50020D3
:1029F000019000903348006840F48030314908600D
:102A000000BF3048006800F4003000900198401C7E
:102A10000190009818B90198B0F5A06FF1D129483C
:102A2000006800F4003010B10120009001E00020A7
:102A300000900098012843D12348006840F010001E
:102A4000214908600846006820F003000860084635
:102A5000006840F0020008601A4840681949486060
:102A60000846406848600846406840F48060486016
:102A70000846406820F47C1048600846406840F4EE
:102A8000E81048600846006840F08070086000BFA9
:102A90000C48006800F000700028F9D00948406830
:102AA00020F00300074948600846406840F00200F3
:102AB000486000BF0348406800F00C000828F9D1C6
:102AC0000CBD00000010024000200240042808D184
:102AD0004FF0E021096941F004014FF0E02211615B
:102AE00007E04FF0E021096921F004014FF0E022F6
:102AF000116170477047000010B50F214FF0FF3093
:102B0000FFF732FD6FF00400FFF7E0FF00200D49F2
:102B1000086042F22834B4F1807F00D311E024F041
:102B20007F40401E4FF0E02148610F214FF0FF3001
:102B3000FFF71AFD00204FF0E021886107200861AF
:102B400000BF10BD1400002010B51348006840F00D
:102B500001001149086008464068104908400E49C4
:102B60004860084600680E4908400B49086008465E
:102B7000006820F4802008600846406820F4FE00C9
:102B800048604FF41F008860FFF72BFF4FF0006094
:102B90000449086010BD0000001002400000FFF86A
:102BA000FFFFF6FE08ED00E010B50121054800F03A
:102BB000DEF828B1FFF700FF0121024800F0CEF84F
:102BC00010BD0000002C014010B50121880700F065
:102BD000CEF840B10121880700F0C0F80848C0686D
:102BE000401C0749C8600821C80600F0C0F828B199
:102BF000FFF70EFA0821C80600F0B0F810BD00007B
:102C0000F80100202DE9FE4F0121494800F0AFF8FE
:102C1000C0B148480068401C464908600846006842
:102C200060B10021424800F0B3F80020424908603A
:102C300001204249087000203E49086001213C48BB
:102C400000F08CF802213A4800F091F800286CD08E
:102C500040213B48FEF7C7FF01280CD1344800F063
:102C600080F8384908800221314800F091F80020AE
:102C70003049086055E02E4800F073F883462D482F
:102C800000880BEB00402F490988A0EB010A2E4871
:102C90000290029801F08EF800222C4BCDE9000141
:102CA00000F048FC06460F46504601F0FFF901903F
:102CB00001F080F8804632463B4600F051FE044663
:102CC00000F04AFB1C49086021491B48006801F0DC
:102CD00001FB03D21E481849086009E04FF080410B
:102CE0001548006801F0F6F902D200201249086088
:102CF00018491148006801F0EDF905D24FF4004180
:102D00001548FEF77BFF04E04FF400411248FEF740
:102D100073FF0021064800F03BF8012007490870C6
:102D200000BF0221024800F019F8BDE8FE8F000044
:102D30000004004024000020200000201C0000208F
:102D400000080140280000200000AD430088D34067
:102D50000000E14300004842000C0140CA430282E7
:102D600070470146888E70470146888F704730B59E
:102D70000246002000230024158A05EA01039589F4
:102D800005EA010413B10CB1012000E0002030BDC0
:102D90000A460021018C4FF6FD731940114301844E
:102DA0007047000010B540F22551094800F02DF899
:102DB00060B1074800F0E4F8C4B22046FEF7BAFF5D
:102DC00040F22551024800F005F800BF10BD000098
:102DD0000038014010B50022002340F66A14A142D9
:102DE00000D100BF0A1201249440A3B2DC43048046
:102DF00010BD21B1828942F40052828104E08289AF
:102E00004DF6FF731A408281704770B50246002468
:102E100000230025002040F66A16B14200D100BF11
:102E2000C1F3421501F01F03012606FA03F3012D39
:102E300002D19689334006E0022D02D1168A334032
:102E400001E0968A33400C12012606FA04F4168833
:102E5000344013B10CB1012000E0002070BDF0B58A
:102E60000346002400260025002040F66A17B942D8
:102E700000D100BF1846C1F3421401F01F0601271C
:102E800007FA06F5012C01D10C3004E0022C01D127
:102E9000103000E014301AB107682F43076002E0D9
:102EA0000768AF430760F0BD2DE9F04786B00546DF
:102EB0000E460024A24600BFA1460027B08900B1FB
:102EC00000BF2F462C8A4CF6FF700440F088044364
:102ED0002C82AC894EF6F3100440B0883189084347
:102EE000718908430443AC81AC8A4FF6FF4004402B
:102EF000B0890443AC8201A8FFF7F4FC1F48874265
:102F000002D1DDF810A001E0DDF80CA0A88900F4E2
:102F1000004040B10AEBCA0000EB0A1031684900DA
:102F2000B0FBF1F807E00AEBCA0000EB0A103168C9
:102F30008900B0FBF1F86420B8FBF0F0040120092F
:102F4000642101FB1089A88900F4004040B13220BF
:102F500000EBC900B0FBF1F000F00700044308E00B
:102F6000322000EB09106421B0FBF1F000F00F00FB
:102F700004432C8106B0BDE8F08700000038014012
:102F800001468888C0F30800704700BFFEE740F2A2
:102F9000013200204FF0E04101F082BA024A0020E5
:102FA000110701F07DBA000001FDFFFF10B50446D6
:102FB000D1E9000100F002F8206010BDF8B5044628
:102FC0000D466A4600F080F800987E300090002898
:102FD0001EDC002213462046294600F003FC17D0D1
:102FE000002140F608004FF0000006462046294622
:102FF00000F0B2F9044640F6080006EA00014FF07E
:10300000000034F0004004BF0220FDF78EF929E0F3
:103010000098FF2828DB002108464FF0000000F44C
:103020004006002213462046294600F097FD8CBF3B
:10303000002501250220FDF778F94FF0FF4446B145
:10304000002D0CBF4FF400004FF48000B04218BFB9
:10305000084C042108464FF00000002D04BF84F006
:103060000040F8BD2046F8BD20462946BDE8F8409E
:1030700000F072B9FFFF7F7F10B504460A46D4E91D
:103080000003194600F04CF8C4E9000110BD3038C7
:103090000A2801D2012070470020704730B583B064
:1030A0000446FDF73DF905460020CDE90000024643
:1030B00021466846FDF75EF92846FDF736F9DDE959
:1030C000000103B030BD000010B51446002222609C
:1030D000114A21F000439342A8BF10BD53EA0002F9
:1030E00008BF10BDB3F5801FA8BF226807DA3622DB
:1030F00001F0D6F96FF0350221F000432260DFF8CD
:103100001CC06FF31E510CEB23531A4441F0FF51C6
:1031100041F00051226010BD0000F07F02FCFFFF73
:103120002DE9F04106460C4640F2FF75174635EA98
:1031300014502BD000221346304600F053FB25D00C
:103140003A463046214601F0ABF906460C4635EAD0
:10315000145010D000221346304600F043FB15D126
:103160000220FDF7E2F8FFF719FF0A46214662F355
:103170001E01BDE8F0810220FDF7D7F8FFF707FF39
:103180000A46214662F31E01BDE8F0813046214621
:10319000BDE8F081FFF798F9FFF7FAF92AA20121BB
:1031A0000846FFF759FB2BA201210220FFF754FB31
:1031B00049E0FEF75BFD044629A201210846FFF71E
:1031C0004BFB2278022303210120FFF723FB3A2245
:1031D00005210120FFF7E4FA62780223062101208D
:1031E000FFF718FB3A2208210120FFF7D9FAA2784D
:1031F000022309210120FFF70DFB1AA20121022061
:10320000FFF72AFB94F8340078B1206B00F02EFF12
:10321000054603232A4605210220FFF7FBFA13A2E5
:1032200001210320FFF718FB09E013A2052102206A
:10323000FFF712FB11A201210320FFF70DFB032072
:1032400000F02EF800BFB4E747505320496E697470
:103250002E2E2E0057616974205369676E616C00D1
:10326000743A00004372733A000000004750533A2A
:103270002056616C696400002D2D2D004750533A93
:10328000205761697400000030B50446002504E051
:103290004FF47A7000F010F86D1CA542F8D330BDE1
:1032A00030B50446002504E04FF47A70FFF7ECFFD8
:1032B0006D1CA542F8D330BD014601EBC1024FF0B1
:1032C000E0235A6100229A611A46126942F0010213
:1032D0001A6100BF4FF0E022106900F001021AB13C
:1032E00000F48032002AF5D04FF0E022126922F07B
:1032F00001024FF0E0231A6100229A61704700003A
:1033000010B500290AD00878002807D0054878446D
:10331000FDF740FC002801D0002010BD0248784491
:1033200010BD0000DE180000D618000010B50029FE
:103330000AD00878002807D005487844FDF72AFC11
:10334000002801D0002010BD0248784410BD0000C4
:10335000CE180000C618000021F00042A2F1605211
:10336000B2F5801F01F0004328BFD2F17F6C0BD96A
:103370005FEA001C43EAC20242EB507018BF70477C
:1033800028BF20F001007047B2F5801FBCBF18466F
:1033900070474FEA410C1CF5001F02D2084600F0AE
:1033A00094BF70B500F086FB00000089FFF7F6BF00
:1033B0004FF00040A0F580007047000010B591EA82
:1033C000030F48BF83F0004300F11284841A71EBAD
:1033D000030C05D2121943EB0C03001B61EB0C012B
:1033E000DFF824E14FEA1154A4EB135C1EEA430F0B
:1033F00018BF9EEA445F73D023EA0E03DCF1200E6F
:1034000021EA045143F4801332D322FA0CFE10EB6C
:103410000E0023FA0CFE41EB0E01CCF1200E03FA54
:103420000EFE10EB0E0051F10001B1F5801FCCF142
:10343000200E32D201EB045112FA0EF2BDE8104018
:1034400058BF7047401C38BF5FEA420218BF704740
:10345000002814BF20F0010041F100014FEA4103B0
:1034600013F5001F38BF7047A1F1C04100F070BBD9
:10347000012A43EB0302ACF1200CDCF11F0E32BF3A
:103480004FF0000E23FA0CF310EB030041EB045154
:10349000B4EB115FD0D0A1EB045101F580114908C4
:1034A0005FEA300001EB04510ED350F1000038BF49
:1034B00012FA0EFE08D1BDE81040C9E7401C38BF23
:1034C0005FEA4202CAD1C3E7BDE810404FEA4103B8
:1034D00013F5001F38BF7047A1F1C04100F038BBA1
:1034E0009EEA445F08D011EA5E0FBDE8104004BFB9
:1034F00001F0004100207047BDE8104070B500F0B9
:10350000D9FA00BF64FBBE3E0000E0FF02494FF065
:10351000000000F093BF00BF0000F87F491058BFC3
:10352000C1F140415B1058BFC3F140438B42EFF300
:10353000008070472DE9C04130B4DFF8A0C23CEAFA
:10354000111418BF3CEA131400F0EC8081EA030563
:103550001CEA111444EAD57418BF1CEA131500F0D4
:10356000C780A4EB05044FF0004545EAC12145EAB8
:10357000C32341EA505143EA525304F17F74994204
:1035800004F500344FEAC0204FEAC22208BF90423F
:1035900000F09C804FEA13650FF24016765D4FEA0B
:1035A000134506FB05F7C7F1807706FB07F74FEADF
:1035B000D737A7FB03687642C8F58038A7FB06CE4D
:1035C00038BFA8F1010807FB08E64FF0000EA6FB84
:1035D000028CE6FB03CEDCF1000CCEF1004E38BFCE
:1035E000AEF1010EA6FB0C584FF000074FF000059E
:1035F000E6FB0E87A1FB08C6A0FB07CE16EB0E0666
:1036000045F10005E1FB076515F1E04E7EBFA4F52D
:1036100080345FEA46066D4116F1800745F10005EA
:103620004FEA17274FEA066647EA0567A6F1DE4626
:10363000B6F1805F4FEA15251FD9384624F0010CFA
:1036400005EBC471BCF1FE6F01EB0C1102D8F0BCAC
:10365000BDE8008124425CBF01F5801E9EEAC47F64
:1036600002D4F0BCBDE80081244238D4F0BCA1F102
:10367000C041BDE8004100F06BBA4FEAD22242EAF5
:1036800043524FEAD323A7FB02864FEAD02040EAF9
:10369000415007FB03661EEA0E0F4FEAD12105FBDE
:1036A000026658BFA6EB0056B6EB00564FEA520E24
:1036B0004EEAC37E18EB0E0E56EB530EBDD518EB3B
:1036C00002085E417F1C55F10005B6E74FF48015F6
:1036D0004FF000074FF000064FF00008ADE7F0BCD8
:1036E0004FF0000001F1C04101F00041BDE8008150
:1036F00011EA0C1F0CEA131500D00CE013EA0C1FA2
:1037000000F025804FF00000F0BC81EA030101F0D9
:103710000041BDE80081F0BCBDE8004181EA030141
:1037200000F016BAF0BCBDE8004170B500F0C2F977
:10373000097EFC3E00F007B881EA03014FF000006B
:1037400001F00041704781EA030100F001BAF0BCCA
:10375000BDE800414FF0000021497047FFFDFBF933
:10376000F7F5F4F2F0EEEDEBE9E8E6E4E3E1E0DEB4
:10377000DDDBDAD8D7D5D4D3D1D0CFCDCCCBCAC826
:10378000C7C6C5C4C2C1C0BFBEBDBCBBBAB9B8B74D
:10379000B6B5B4B3B2B1B0AFAEADACABAAA9A8A840
:1037A000A7A6A5A4A3A3A2A1A09F9F9E9D9C9C9B0E
:1037B0009A999998979796959594939392919190B9
:1037C0008F8F8E8E8D8C8C8B8B8A8989888887874A
:1037D0008685858484838382828181800000FF07BF
:1037E0000000F87F51EA030C17D41CF5801F58BF66
:1037F000BCF5801F00F10680994218BF704708BFD2
:103800009042704707D711F5801F58BF13F5801FEE
:1038100019D499427047894270471CF5801F08D51A
:10382000BCF5801FF7D58B4218BF704708BF824296
:1038300070474FF4001C1CEB410F38BF1CEB430FCB
:1038400001D28B42704770B500F034F992244900E0
:103850004FF000514FF08053FFF760BE4FEA410335
:103860004FEA5353A3F58063D3F11E03C8BFD3F1CE
:10387000210C0CDD4FF0004242EAC12242EA5052D4
:1038800032FA03FC8CEAE17CACEBE1707047102B60
:10389000C4BF0020704703F5787CBCF1FF3F04D023
:1038A0006FF0004282EA2100704770B500F002F923
:1038B0004992248000207047F2E710F0004248BF90
:1038C0004042B0FA80F310FA03F10AD0C3F11D03AD
:1038D00003F580634FEA415002EB035202EBD12122
:1038E00070474FF00000704751EA030C17D41CF5E5
:1038F000801F58BFBCF5801F00F10680994218BF99
:10390000704708BF9042704707D711F5801F58BF16
:1039100013F5801F19D499427047894270471CF5EE
:10392000801F08D5BCF5801FF7D58B4218BF7047A4
:1039300008BF824270474FF4001C1CEB410F38BF98
:103940001CEB430F01D28B42704770B500F0B2F808
:10395000922449004FF000514FF08053FFF7DEBD35
:10396000DFF848C170B51CEA111E1EBF1CEA131512
:103970009EEA0C0F95EA0C0F00F06F8081EA0304B9
:1039800023EA4C134EEAD47E21EA4C1141F4801113
:1039900043F48013AE44A1FB024CA0FB0365AEF1DF
:1039A0007F7E361955EB0C05A1FB034C4CF100034F
:1039B000A0FB021C16EB0C06654153F10003094203
:1039C00018BF46F0010613F4007F0BD14FEA033114
:1039D0004FEA0530340341EA155140EA16506FF0C2
:1039E00003020AE04FEAC3214FEAC520F40241EA8C
:1039F000555140EA56506FF0020202EB2E4201EBA5
:103A0000025585EACE710AD05FEA440C18BF24F053
:103A1000004450F1000041F1000120EAD47040F26E
:103A2000FE7C624500D270BDA84214BF4FF08044B6
:103A30004FF04044002E08BF0024BEF1806FA8BFA5
:103A4000A1F1C041BDE8704080F282804FF00000DB
:103A500001F1C04101F0004170479EEA0C0F0CEAF1
:103A6000131518BF95EA0C0F06D04FF0000081EA3D
:103A7000030E0EF0004170BD00F01CF88900013EFD
:103A800000F007B800F009B84FEA430C5FEA5C5C4D
:103A900008D081EA030100F05BB84FEA410C5FEA0D
:103AA0005C5CF6D14FF00000014970470000FF0751
:103AB0000000F87F0EF1020E2EF0030E5EF8046B8C
:103AC000364205D4012A43EB030515F5001F12D831
:103AD000012841EB010C1CF5001F0CD80ED14FEA58
:103AE000D17C15F5001F0CEB4C0C0CF1020C08BF3F
:103AF0004CEBD37C04E04FF0080C01E04FEAD37CA0
:103B00000CEB4C0526FA05F606F00706B6F1040C98
:103B100006D20EEB860CBDE870404CF0010C6047FD
:103B2000DFE80CF0090B02024FF000414FF00000FB
:103B3000A1F5002170BD19461046012851EB010482
:103B400018BFD4F5001484BF002001F0004170BDFF
:103B50000808A0F500114FEA3101704753EA010C43
:103B600017D41CF5801F58BFBCF5801F00F10680DC
:103B70008B4218BF704708BF8242704707D713F5C2
:103B8000801F58BF11F5801F19D48B4270479B428C
:103B900070471CF5801F08D5BCF5801FF7D59942EA
:103BA00018BF704708BF904270474FF4001C1CEBD1
:103BB000430F38BF1CEB410F01D2994270470FB43D
:103BC0000CBC03BCFFF7C1BE91EA030F10B581F036
:103BD00000413FF5FBAB83F0004300F009B8000063
:103BE00010B591EA030F48BF83F000433FF5EEABF9
:103BF000841A71EB030C07D212198CF0004C43EBC2
:103C00000C03001B61EB0C01DFF8A4E14FEA115437
:103C1000A4EB135C1EEA430F18BF9EEA445F00F05A
:103C2000B08023EA6E03524221EA0451C3EB6E03D3
:103C300038BF5B1EDCF1200E25D322FA0CFE10EB00
:103C40000E0043FA0CFE41EB0E01CCF1200E03FAFC
:103C50000EFE10EB0E0051F10001CCF1200E29D424
:103C600012FA0EF201EB0451BDE8104058BF704744
:103C7000401C1CBFB2F1004F704700280CBF491C0C
:103C800020F00100704712EB020E43EB030218BF55
:103C90004FF0010E4EEA4202ACF1200CDCF11E0E98
:103CA00054D943FA0CFE10EB0E0051F1FF31CCF168
:103CB0001E0ED5D50EF1010E12FA0EFE404141EB5B
:103CC000010101EB445C5FEA5C5C10D910EBDE7033
:103CD00001EB045138BFBEF1004FBDE8104018BFE2
:103CE000704700280CBF491C20F00100704730D2FB
:103CF0004FEAD42C11F5001124F400641BD0B1FA62
:103D000081F20B3AA41AA41ED2F12003914030FA9A
:103D100003F31943904001EBCC71002C01EB0451EB
:103D2000BDE81040A8BF704701F1C0414FF000004E
:103D300001F000417047B0FA80F310FA03F100D1AE
:103D400010BDE41A173C4805C90AE4E701EB045129
:103D500010BD491001EB0451BDE810404FEA30009E
:103D600002E04FF0000170474A0008BF0042F8D05F
:103D7000B2F5001F28BF704701F000414FF000006E
:103D800070479EEA445F07D011EA5E0FBDE810401D
:103D900004BF002100207047BDE8104070B5FFF758
:103DA00089FE00BF40DFF63E83F0004110467047B9
:103DB0000000E0FF43004FEAD30C4FEA3C0C4340C5
:103DC0001FBF40070CF1605113F0FE4F70471CF00D
:103DD000006F03D100200CF0004170470CF000434D
:103DE00043EA507010B540EACC0000F028FA00BF5A
:103DF000000000924FEA0001FFF7AABE4FF0004119
:103E00004FF00000A1F500217047000090EA010F7B
:103E100048BF81F0004100F1A082421A3CBF801AE5
:103E200089184FEAD0524FF07F4C1CEA410FA2EBA9
:103E3000D15318BF9CEA026F00F03B804FF0004C5A
:103E40004CEA00204CEA012121FA03FC10EB0C0C97
:103E50001ED202F1FF325FEA1C2040EBC25038BF95
:103E600070471CF07F0F4FEA400C18BFBCF17F4F2A
:103E700038BF7047C3F12003994008BF20F001000C
:103E8000BCF17F4F38BF7047A0F1C04000F01DBAB1
:103E90004FEA3C00000A40EBC25028BF1CF0FF0F65
:103EA0004FEA400CE6D018BFBCF17F4F38BF7047D7
:103EB000EAE79CEA026F05D010EA5C0F08BF00F049
:103EC0000040704710B500F0BAF900BF64FBBE3E79
:103ED000401058BFC0F14040491058BFC1F14041A7
:103EE0008142EFF3008070474FF47F0C1CEAD01240
:103EF0001EBF1CEAD11392EA0C0F93EA0C0F00F0DC
:103F0000858090EA010F48BF42F4807240F4000CB3
:103F100041F400002CF07F4120F07F4000B5814249
:103F2000A2EB03020FF2081CACEB504EC0F10000F4
:103F30009EF800E04FEA4E0E00FB0EFC38BF490031
:103F40004FEA2C1C02F5FA020CFB0EF34FEACE1ED0
:103F50004FEA112C4FEAC1210EEB635E42EB224285
:103F60000EFB0CFC4FEA1C5300FB03114FEA112C13
:103F70004FEA01310EFB0CFC4FEADC4C00FB0C114C
:103F8000C14228BF09184CEB03335DF804EB10EB7A
:103F9000410143EBC250B2F57C0F38BF704729D5C1
:103FA00012F0F00F1CBF00F1C04000F0004070475D
:103FB000008182838485868788898B8C8D8E8F9102
:103FC0009293959697999A9C9D9FA0A2A3A5A7A826
:103FD000AAACAEB0B2B3B5B7B9BCBEC0C2C5C7C952
:103FE000CCCED1D4D7D9DCDFE2E6E9ECF0F3F7FAB6
:103FF000FE0000004FEA400C0CF1807CBCF17E4FCB
:1040000028BF7047B0F1C04000F05FB990EA010FDF
:104010000CEAD11348BF42F48072624538BF634551
:1040200007D213F47F0F16D080EA010000F00040A1
:10403000704710B500F003F9097EFC3E00F005B8AA
:1040400080EA010000F00040704780EA010000F0C3
:10405000004000F03AB912F47F0F04BF02487047E5
:1040600080EA010000F031B90000C07FC10DD1F13C
:104070009E0206DB4FEA002343F0004323FA02F0DE
:104080007047004207D54FEA4001B1F1FE4F02D21E
:104090004FF00000704710B500F0D1F8499224802D
:1040A000002070476FEA200070470000B0FA80F3EC
:1040B00010FA03F2C3F19D030AD0D90501EB1220D7
:1040C000530638BF704700F1010008BF20F001001F
:1040D0007047000050EA010C00F113801CF5000F3E
:1040E00058BFBCF5000F01D48842704707D710F5C0
:1040F000000F58BF11F5000F15D488427047894250
:1041000070471CF5000F04D5BCF5000FF7D58142B0
:1041100070474FF0807C1CEB400F38BF1CEB410F09
:1041200001D28142704710B500F089F8922449000D
:104130004FF000504FF08051FFF7CABE4FF47F0C94
:104140001CEAD0121EBF1CEAD11392EA0C0F93EAAC
:104150000C0F00F0478090EA010F48BF42F48072D4
:104160004FF0004C4CEA00204CEA012102EB030224
:10417000A0FB0113A2F50002002918BF43F00103C0
:104180005B0028BF4FEA330342EB22425FEA132C65
:104190004CEBC2502EBFBCEB436FB2F57C0F7047A7
:1041A0004FEA036CBCF1004F08BF20F00100B2F5EC
:1041B0007C0F38BF70470BD582F0FF0212F5803FAD
:1041C000C8BF704700F1C040D8BF00F00040704742
:1041D00000F5000C5FEA4C0C48BF7047B0F1C040DE
:1041E00000F073B890EA010F0CEAD11348BF42F413
:1041F0008072624538BF634504D280EA010000F056
:104200000040704710B500F01AF800BF8900013E69
:1042100000F007B800F009B85FEA410C5FEA1C6CD7
:1042200008D080EA010000F050B85FEA400C5FEA75
:104230001C6CF6D14FF00040A0F5800070470EF1E5
:10424000020E2EF0030E5EF8044B244204D44FEA13
:104250004102B2F17F4F11D84FEA4003B3F17F4FD3
:104260000CD80ED14FEAD07CB2F17F4F0CEB4C0C46
:104270000CF1020C08BF4CEBD17C04E04FF0080CB1
:1042800001E04FEAD17C0CEB4C0324FA03F404F078
:104290000704B4F1040C06D20EEB840CBDE8104008
:1042A0004CF0010C6047DFE80CF0070802024FF009
:1042B0000040A0F5800010BD0846420018BFD2F1B2
:1042C000807288BF00F0004010BDFF2141EAD0504D
:1042D000C005704751EA000C00F113801CF5000F77
:1042E00058BFBCF5000F01D48142704707D711F5C4
:1042F000000F58BF10F5000F15D481427047894256
:1043000070471CF5000F04D5BCF5000FF7D58842A7
:1043100070474FF0807C1CEB410F38BF1CEB400F07
:1043200001D28842704780EA010081EA000180EAF8
:104330000100FFF7F8BE80F0004090EA010F7FF522
:104340006CAD81F0004100F008B8000090EA010F68
:1043500048BF81F000413FF560AD421A04D882F0B9
:104360000042A0EB020011444FEAD0524FF07F4CC4
:104370001CEA410FA2EBD15318BF9CEA026F4AD04E
:104380004FF0004C4CEA00204CEA012121FA03FCDA
:10439000B0EB0C0C0FD412F0FE0F36D05FEA4C00DD
:1043A0001DD5001240EBC25038BF70471CF03F0FC4
:1043B00018BF70470BE0A2F101025FEA1C2040EB3E
:1043C000C25038BF70471CF07F0F18BF7047C3F151
:1043D0002003994014BF401E20F001007047800860
:1043E0004FEA122308BF7047B0FA80FCA2EB0C0220
:1043F000CCF1280C60FA0CF093EA122F04BF00EB0A
:10440000C25070474FEAC3707047130A5FEADC106E
:1044100008BF7047F6E79CEA026F04D010EA5C0F11
:1044200008BF0020704710B5FFF709FF40DFF63ED8
:1044300081F0004070474FF0000070470CF00F0310
:10444000092B08BF082000F05F800A2B0BD0082B37
:1044500018BF704708BF1CF0400F0AD04FF0000093
:104460004FF0000170471CF0400F18BF4FF00040A4
:1044700070471CF0100F08D020F0704300F07F420E
:1044800042EAD3014FEA4370704700F0604021F0E8
:104490007F4242EA000201F07F4040EA72707047BA
:1044A0004FF0FF0C4CF4E06C1CEA11531CBF9CEA6B
:1044B000030C9445C2BFDA4201EB02517047002B56
:1044C0000DD0BCF1000F0FD0002A01F00041A4BFB5
:1044D00041F0E04141F07F614FF00000704701F092
:1044E00000414FF00000704750EA01334FF09B0C41
:1044F00018BF4CF0806C7FF409A87047FCF7EAB94C
:10450000FCF7FABBFCF788BD1CF4801F11D01CF42B
:10451000E02F03D06FEACC31490070474FF0405094
:10452000EFF3008222F0704242EA000282F3008838
:1045300070474FF0000070470000000000000000CE
:104540000000000000000000000000F80000000073
:10455000000000333000000000100C06100C0600B4
:10456000000000000000000040C07840C07840001B
:10457000043F04043F040400007088FC083000007D
:10458000001820FF211E0000F008F000E0180000D5
:1045900000211C031E211E0000F00888700000008E
:1045A0001E2123241927211010160E0000000000E0
:1045B0000000000000000000000000E018040200FD
:1045C000000000071820400000020418E00000006E
:1045D0000040201807000000404080F0804040006C
:1045E0000202010F01020200000000F000000000C2
:1045F0000101011F01010100000000000000000096
:1046000080B070000000000000000000000000000A
:104610000001010101010101000000000000000093
:10462000003030000000000000000000806018042E
:10463000006018060100000000E010080810E0000B
:10464000000F102020100F00001010F800000000D4
:104650000020203F2020000000700808088870001B
:10466000003028242221300000300888884830009B
:104670000018202020110E000000C02010F80000BB
:1046800000070424243F240000F808888808080054
:104690000019212020110E0000E010888818000069
:1046A000000F112020110E0000380808C83808003B
:1046B0000000003F000000000070880808887000BB
:1046C000001C222121221C0000E010080810E0003C
:1046D0000000312222110F00000000C0C0000000C5
:1046E00000000030300000000000008000000000EA
:1046F00000008060000000000000804020100800E2
:1047000000010204081020004040404040404000AA
:104710000404040404040400000810204080000085
:104720000020100804020100007048080808F0008A
:104730000000003036010000C030C828E810E0005A
:104740000718272423140B000000C038E0000000E5
:10475000203C23020227382008F88888887000004F
:10476000203F202020110E00C03008080808380023
:10477000071820202010080008F808080810E0009A
:10478000203F202020100F0008F88888E80810003B
:10479000203F20202320180008F88888E80810000F
:1047A000203F200003000000C03008080838000047
:1047B00007182020221E020008F808000008F80848
:1047C000203F210101213F20000808F808080000CF
:1047D0000020203F2020000000000808F808080002
:1047E000C08080807F00000008F888C0281808007A
:1047F000203F20012638200008F8080000000000B3
:10480000203F20202020300008F8F800F8F80800A9
:10481000203F003F003F200008F830C00008F808A3
:10482000203F200007183F00E01008080810E000B3
:104830000F10202020100F0008F808080808F000CA
:10484000203F210101010000E01008080810E000ED
:104850000F18242438504F0008F888888888700082
:10486000203F2000030C3020007088080808380022
:104870000038202121221C00180808F80808180018
:104880000000203F2000000008F808000008F80899
:10489000001F202020201F000878880000C838084A
:1048A000000007380E010000F80800F80008F800C2
:1048B000033C0700073C030008186880806818085C
:1048C00020302C03032C30200838C800C8380800DA
:1048D0000000203F2000000010080808C838080029
:1048E0002038262120201800000000FE02020200CD
:1048F0000000007F40404000000C30C0000000007D
:10490000000000010638C00000020202FE000000A4
:10491000004040407F00000000000402020204004A
:104920000000000000000000000000000000000087
:10493000808080808080808000020204000000006F
:104940000000000000000000000080808080000067
:104950000019242222223F2008F800808000000055
:10496000003F112020110E00000000808080000018
:10497000000E112020201100000000808088F80027
:10498000000E112020103F20000080808080000059
:10499000001F222222221300008080F088888818BD
:1049A0000020203F202000000000808080808000C8
:1049B000006B94949493600008F80080808000005D
:1049C000203F210000203F20008098980000000038
:1049D0000020203F20200000000000809898000068
:1049E00000C08080807F000008F800008080800088
:1049F000203F24022D302000000808F800000000AD
:104A00000020203F20200000808080808080800067
:104A1000203F20003F20003F8080008080800000F9
:104A2000203F210000203F20000080808080000087
:104A3000001F202020201F008080008080000000B8
:104A400080FFA12020110E000000008080808000E7
:104A5000000E112020A0FF808080800080808000D8
:104A600020203F2120000100000080808080800005
:104A70000033242424241900008080E0808000007A
:104A80000000001F202000008080000000808000C7
:104A9000001F202020103F20808080000080808028
:104AA00000010E30080601008080008000808080B8
:104AB0000F300C030C300F000080800080808000DD
:104AC0000020312E0E312000808080000080808008
:104AD00080818E70180601000080808080808000B8
:104AE0000021302C2221300000000000807C0202D6
:104AF00000000000003F404000000000FF000000F8
:104B000000000000FF0000000002027C80000000A6
:104B10000040403F000000000006010102020404C2
:104B2000000000000000000002400000000000A0A3
:104B30000000000005400000000000C80000000068
:104B40000C4000000000409C0000000019400000E4
:104B50000020BCBE0000000034400000BFC91B8E16
:104B600000000004B5400000504BCFD06607E2CFF4
:104B7000010000006C4100003E8251AADFEEA73424
:104B800001000000D9420000DCB5A0E23A301F97D6
:104B9000FFFFFFFFB4450000FD25A0C8E9A3C14FFA
:104BA000FFFFFFFFFF3F000000000080000000004B
:104BB000FF3F00000000008000000000184D0008CA
:104BC000000000204000000028010008584D0008A7
:104BD00040000020800800004401000800000000A0
:104BE0000000F07FFFFFFFFFFFFFEF7F1C000000D2
:104BF00043000000F8FFFFFF0C0000000E00000063
:104C00000F0000002E000000100100004300000013
:104C1000F8FFFFFF004040404040404040404141DD
:104C20004141414040404040404040404040404081
:104C3000404040404005020202020202020202021B
:104C40000202020202202020202020202020200218
:104C500002020202020290909090909010101010A8
:104C60001010101010101010101010101010101044
:104C700002020202020288888888888808080808D8
:104C800008080808080808080808080808080808A4
:104C900002020202400000000000000000000000CC
:104CA0000000000000000000000000000000000004
:104CB00000000000000000000000000000000000F4
:104CC00000000000000000000000000000000000E4
:104CD00000000000000000000000000000000000D4
:104CE00000000000000000000000000000000000C4
:104CF00000000000000000000000000000000000B4
:104D000000000000000000000000000000000000A3
:104D10000000000000000000000000000102030489
:104D20000102030406070809020406080000000047
:104D30000000000000000000000000000000000073
:104D40000000000000000000000000000000A04182
:084D50000000A040000000007B
:04000005080000ED02
:00000001FF
